:060000000A128A1110280B
:10000800FE00030E83160313AD000A08AE007F0836
:10001800AF000A128A15EF2D0A128A1113288316C7
:1000280003130A128A11FC270A128A11B800B101B7
:10003800B201B301B401B501B601B70183010A12D7
:100048008A15122D831203133D088039C200420815
:10005800C7003D08C2004207C3004308CD00BC1FCB
:100068003628372838284D144D0803193C283D28D0
:100078004C284D0A031D412842284A280030BD005B
:100088000030BC000030BB000030BA00BC17542858
:100098000030BD000030BC000030BB000030BA00AA
:1000A80041088039C2004208C7064108C200420719
:1000B800C3004308CC00C01F6228632864284C147E
:1000C8004C0803196828692878284C0A031D6D28EC
:1000D8006E2876280030C1000030C0000030BF0014
:1000E8000030BE00C01780280030C1000030C000BA
:1000F8000030BF000030BE004C0803198428852852
:100108008A284D08031D89288A2893280030BD00B5
:100118000030BC000030BB000030BA00862B3A0823
:10012800C2004208F00040080A128A15EB240A129D
:100138008A11710883120313D3007008D200520881
:10014800C200C301C401C5014508CB004408CA0068
:100158004308C9004208C8005308C200C301C401CB
:10016800C5014508D1004408D0004308CF00420823
:10017800CE003B08C2004208F0003F080A128A1568
:10018800EB240A128A11710883120313D300700832
:10019800D2005208C200C301C401C5014208C80701
:1001A800430803110318013E0319DB28C907440853
:1001B80003110318013E0319E228CA074508031171
:1001C8000318013E0319E928CB075308C200C301ED
:1001D800C401C5014208CE07430803110318013EB4
:1001E8000319F728CF07440803110318013E031920
:1001F800FE28D007450803110318013E03190529F5
:10020800D1073C08C2004208F0003E080A128A15CD
:10021800EB240A128A11710883120313D3007008A1
:10022800D2005208C200C301C401C5014208C80770
:10023800430803110318013E03192329C907440879
:1002480003110318013E03192A29CA074508031197
:100258000318013E03193129CB075308C200C30113
:10026800C401C5014208CE07430803110318013E23
:1002780003193F29CF07440803110318013E031946
:100288004629D007450803110318013E03194D29D3
:10029800D1070830C2000310C80DC90DCA0DCB0D17
:1002A800C20B4F293B08C2004208F0003E080A1260
:1002B8008A15EB240A128A11710883120313D300DA
:1002C8007008D2005208C2005308C300C401C50117
:1002D8004208C807430803110318013E031975298A
:1002E800C907440803110318013E03197C29CA07EA
:1002F800450803110318013E03198329CB073A085F
:10030800C2004208F0003F080A128A15EB240A12BC
:100318008A11710883120313D3007008D20052089F
:10032800C2005308C300C401C5014208C8074308F6
:1003380003110318013E0319A229C9074408031130
:100348000318013E0319A929CA0745080311031810
:10035800013E0319B029CB070830C2000310C80DAD
:10036800C90DCA0DCB0DC20BB2293A08C20042080A
:10037800F0003E080A128A15EB240A128A11710845
:1003880083120313D3007008D2005208C200530826
:10039800C300C401C5014208C80743080311031874
:1003A800013E0319D829C907440803110318013E5F
:1003B8000319DF29CA07450803110318013E031969
:1003C800E629CB073B08C2004208F00040080A12A1
:1003D8008A15EB240A128A11710883120313D300B9
:1003E8007008D2005208C2005308C300C401C501F6
:1003F8004208CE07430803110318013E0319052AD2
:10040800CF07440803110318013E03190C2AD0072B
:10041800450803110318013E0319132AD1073C08A4
:10042800C2004208F0003F080A128A15EB240A129B
:100438008A11710883120313D3007008D20052087E
:10044800C2005308C300C401C5014208CE074308CF
:1004580003110318013E0319322ACF074408031178
:100468000318013E0319392AD00745080311031858
:10047800013E0319402AD1073C08C2004208F00097
:1004880040080A128A15EB240A128A11710883128D
:100498000313D3007008D2005208C2005308C300E7
:1004A800C401C50108300310C20DC30DC40DC50D2C
:1004B800FF3E031D572A4208CE07430803110318BD
:1004C800013E0319682ACF07440803110318013EA7
:1004D80003196F2AD007450803110318013E0319B1
:1004E800762AD1074808C2004908C3004A08C40050
:1004F8004B08C50018300310C50CC40CC30CC20C43
:10050800FF3E031D7F2A4208CE0743080311031844
:10051800013E0319902ACF07440803110318013E2E
:100528000319972AD007450803110318013E031938
:100538009E2AD1070830C2000310C80DC90DCA0D84
:10054800CB0DC20BA02A4D084C07C200C301C30D36
:100558004208823ED20043080318013EFF3ED30002
:10056800D22A0130C2000310CE0DCF0DD00DD10D0F
:10057800C20BB72ACB1FC12AC22AC32A4E14013084
:10058800C2000310C80DC90DCA0DCB0DC20BC52A78
:10059800FF30D2070318D30AFF30D307D01FD52A5C
:1005A800D62AB52ACC01CB1FDA2ADB2AF72AFF3054
:1005B8004805C200FF304905C300FF304A05C400A2
:1005C8007F304B05C5004508440443044204031921
:1005D800EE2AEF2AF22ACC01CC0AF72A4E1CF52A79
:1005E800F62AF72AEF2A4C080319FB2AFC2A2D2B96
:1005F8000130CE07003003180130CF070030031850
:100608000130D007003003180130D107511C0D2BE1
:100618000E2B2D2B4E08C2004F08C3005008C400F3
:100628005108C5000130C600450DC50CC40CC30CEB
:10063800C20CC60B182B4508D1004408D00043084B
:10064800CF004208CE000130D2070318D30A003089
:10065800D3075308803AFF0080307F02031D362BF2
:10066800FF305202031C392B3A2B452B7F30831263
:100678000313D1008030D0000030CF000030CE000E
:100688007A2B831203135308803AFF0080307F02CD
:10069800031D502B013052020318532B542B602B8F
:1006A800003083120313D1000030D0000030CF0097
:1006B8000030CE00C7017A2B831203135208C20000
:1006C8004208CD00FF30CE05FF30CF057F30D00582
:1006D8000030D1054D1C712B722B732BD0174D0890
:1006E800C2000310420CC3004308D1004708C200EF
:1006F8004208D1045108BD005008BC004F08BB0097
:100708004E08BA0008008312031357088039DC002A
:100718005C08E4005708DC005C07DD005D08E600C3
:10072800D61F972B982B992B6614660803199D2BB7
:100738009E2BAE2B660A031DA22BA32BAB2B0030DE
:10074800D7000030D6000030D5000030D400D617CE
:10075800D701B62B0030D7000030D6000030D500C6
:100768000030D4005B088039DC005C08E5006508CF
:1007780064060319C02BC12BC22B64175B08DC006D
:100788005C07DD005D08E500DA1FCB2BCC2BCD2BF9
:10079800651465080319D12BD22BE22B650A031DBA
:1007A800D62BD72BDF2B0030DB000030DA000030EF
:1007B800D9000030D800DA17DB01EA2B0030DB0063
:1007C8000030DA000030D9000030D8006608650231
:1007D8000318EF2BF02B342C641FF32BF42BF82B7E
:1007E8008030DC005C08E4066608DC005C08E70092
:1007F8006508DC005C08E6006708DC005C08E500CA
:100808005408DC005C08E7005808DC005C08D400E9
:100818006708DC005C08D8005508DC005C08E700C5
:100828005908DC005C08D5006708DC005C08D900C2
:100838005608DC005C08E7005A08DC005C08D600B3
:100848006708DC005C08DA005708DC005C08E70091
:100858005B08DC005C08D7006708DC005C08DB008C
:10086800E7016508DC00DD015D08DF0066085C0261
:10087800DE00031CDF035F08803AFF0080307F0240
:10088800031D482C1A305E02031C4B2C4C2C892C5F
:10089800831203135708560455045404031D552C9A
:1008A800572C0130582C0030DC005C08E700003081
:1008B800D7000030D6000030D5000030D4006508DD
:1008C800DC005C08E600912C671C6B2C6C2C752CEA
:1008D8006708DC0003105C0C0138DD005D08E700E8
:1008E800772C0310E70C541C7A2C7B2C7C2CE717F4
:1008F8000130DC00570DD70CD60CD50CD40CDC0B12
:100908007E2C0130DC005C08E607831203136508BF
:100918006602031C902C912C682C641B942C952C3B
:10092800E02C6608031D992C9A2CA32C0030D700C4
:100938000030D6000030D5000030D4000E2E580804
:10094800D407590803110318013E0319AC2CD50725
:100958005A0803110318013E0319B32CD6075B0884
:1009680003110318013E0319BA2CD707571CBD2CD5
:10097800BE2C942D671CC12CC22CCB2C6708DC0024
:1009880003105C0C0138DD005D08E700CD2C031076
:10099800E70C541CD02CD12CD22CE7170130DC00EA
:1009A800570DD70CD60CD50CD40CDC0BD42C01303D
:1009B800DC005C08E607942D5708803AFF005B08C6
:1009C800803A7F02031DF22C5A085602031DF22CAE
:1009D80059085502031DF22C580854020318F52C27
:1009E800F62C4E2DFF30DC00FF30DD00FF30DE003E
:1009F800FF30DF005808E0005908E1005A08E2001B
:100A08005B08E3005408E0025508031C550F0D2D40
:100A18000E2DE1025608031C560F132D142DE20269
:100A28005708031C570F192D1A2DE3026008DC071D
:100A380061080318610F212D222DDD0762080318B4
:100A4800620F272D282DDE0763080318630ADF07C6
:100A58005F08D7005E08D6005D08D5005C08D400A2
:100A68008030DC005C08E406E709E70A6708031D34
:100A78003E2D3F2D5C2D0130D40700300318013086
:100A8800D507003003180130D607003003180130AD
:100A9800D7075C2D5808D4025908031C590FD502F2
:100AA8005A08031C5A0FD6025B08031C5B0FD702B7
:100AB8005708560455045404031D632D642D902DC6
:100AC8006708031D682D692D902D0030D700003070
:100AD800D6000030D5000030D4000E2E0130DC00E6
:100AE8000310D40DD50DD60DD70DDC0B742DE71FD3
:100AF8007E2D7F2D802D5414671C832D842D872DEA
:100B08000314E70D892D0310E70D660803198D2DD1
:100B18008E2D902D0130E602D61F932D942D722D27
:100B2800E501E71F982D992DA72D67087F3903192F
:100B38009E2D9F2DA22DE501E50AA72D541CA52D5C
:100B4800A62DA72D9F2D65080319AB2DAC2DE02DE3
:100B58000130D407003003180130D50700300318DE
:100B68000130D607003003180130D707571CBD2DB8
:100B7800BE2DE02D5408DC005508DD005608DE00C7
:100B88005708DF000130E0005F0DDF0CDE0CDD0CE4
:100B9800DC0CE00BC82D5F08D7005E08D6005D08A6
:100BA800D5005C08D400660A0319DB2DDC2DE02D86
:100BB8000130DC005C08E607660A0319E42DE52D20
:100BC800EA2D6608031DE92DEA2DF82D0030D7001F
:100BD8000030D6000030D5000030D4006608031D70
:100BE800F62DF72DF82DE401661CFB2DFC2DFE2DAE
:100BF800D617022E7F30DC005C08D6056608DC00BC
:100C080003105C0CDD005D08D700E41F0C2E0D2ED0
:100C18000E2ED71708008312031327088039A8005F
:100C28002808B1002708A8002807A9002908B80043
:100C3800A61F1F2E202E212E381438080319252E02
:100C4800262E362E380A031D2A2E2B2E332E003040
:100C5800A7000030A6000030A5000030A400A617A9
:100C6800A7013E2E0030A7000030A6000030A500E6
:100C78000030A40023088039A8002808B1062308FA
:100C8800A8002807A9002908B900A21F4C2E4D2E3C
:100C98004E2E391439080319522E532E632E390A51
:100CA800031D572E582E602E0030A3000030A200DE
:100CB8000030A1000030A000A217A3016B2E003065
:100CC800A3000030A2000030A1000030A0002308DB
:100CD800220421042004031D722E732E8C2E003052
:100CE800A7000030A6000030A5000030A400803026
:100CF800A6047F30A7043108A8002808A7042708FD
:100D0800A3002608A2002508A1002408A000EB2FB4
:100D18003808031D902E912E9A2E0030A300003023
:100D2800A2000030A1000030A000EB2F3808A80076
:100D3800A9012908AB0039082802AA00031CAB0343
:100D48002A087F3EB2002B080318013E003EB3007C
:100D58002708B0002608AF002508AE002408AD001B
:100D68000030A7000030A6000030A5000030A40025
:100D78000030B7000030B6000030B5000030B400D5
:100D8800B901102F39080319CA2ECB2EEB2E0130CA
:100D9800A8000310AD0DAE0DAF0DB00DA80BCD2EF4
:100DA8000130A8000310A40DA50DA60DA70DA80BD2
:100DB800D62EB71FE02EE12EE22E24140130A80013
:100DC8000310B40DB50DB60DB70DA80BE42E23080E
:100DD8003002031DF92E22082F02031DF92E2108C7
:100DE8002E02031DF92E20082D02031CFC2EFD2EB9
:100DF8000C2F37172008AD022108031C210FAE0263
:100E08002208031C220FAF022308031C230FB00281
:100E18000130A8002808B9071A303902031C152F19
:100E2800162FC62E30082F042E042D0403191D2F4B
:100E38001E2F3D2F34143D2F0130A8000310A40DA0
:100E4800A50DA60DA70DA80B222FB71F2C2F2D2FF0
:100E58002E2F24140130A8000310B40DB50DB60DC3
:100E6800B70DA80B302FFF30B2070318B30AFF30B5
:100E7800B307A61F402F412F202FB901B71F452FB9
:100E8800462F622FFF303405A800FF303505A90032
:100E9800FF303605AA007F303705AB002B082A043F
:100EA800290428040319592F5A2F5D2FB901B90AAB
:100EB800622F241C602F612F622F5A2F39080319C3
:100EC800662F672F982F0130A407003003180130D0
:100ED800A507003003180130A607003003180130B9
:100EE800A707271C782F792F982F2408A8002508F2
:100EF800A9002608AA002708AB000130AC002B0D7A
:100F0800AB0CAA0CA90CA80CAC0B832F2B08A700C0
:100F18002A08A6002908A5002808A4000130B2075D
:100F28000318B30A0030B3073308803AFF00803053
:100F38007F02031DA12FFF303202031CA42FA52F0F
:100F4800B32FFF3083120313B2000030B300003018
:100F5800A7000030A6000030A5000030A4008312CE
:100F680003133308803AFF0080307F02031DBE2F31
:100F7800013032020318C12FC22FCF2F831203135F
:100F8800B201B3010030A7000030A6000030A50070
:100F98000030A400B101831203133208A800280806
:100FA800B800381CD82FD92FDB2FA617DF2F7F309A
:100FB800A8002808A6053808A8000310280CA900CE
:100FC8002908A7003108A8002808A704832E0800CC
:100FD8000A128A11F5270A128A11831203131308B9
:100FE800080083160313141CFA2FFB2FF52F080093
:020FF8000134C2
:1019CA00F00070088312031393000800F800F40172
:1019DA00F5017008F200F3017208F6007308F700C7
:1019EA00781CF82CF92CFF2C7608F4070318F50A52
:1019FA007708F50701300310F60DF70DFF3E031DBA
:101A0A00002D0310F80C7808031D0C2D0D2DF52C54
:101A1A007508F1007408F0000800831203130C1E05
:101A2A00172D182D1E2D831603133808831203133E
:101A3A0099009F18212D222D122D1F0C8316031396
:101A4A00B000300C0F39003A031D2C2D2D2D342DEA
:101A5A00831203131F08C33904389F00452D8312CC
:101A6A0003131F0C83160313B000300C0F39013A0D
:101A7A00031D402D412D452DC330831203139F05AD
:101A8A000C3083160313B000B00B492D00008312EB
:101A9A0003139F14122D0A128A111028031083129D
:101AAA0003136A0D6B0D83160313A000200883121B
:101ABA000313ED006D08031D632D642D6D2D003099
:101ACA00EB000030EA000030E9000030E800EE2DBB
:101ADA00680883160313A000831203136908831688
:101AEA000313A100831203136A0883160313A200C7
:101AFA00831203136B0883160313A3001F3003100A
:101B0A00A30CA20CA10CA00CFF3E031D842D2008DF
:101B1A00A400240883120313EC00EA17FF30E80537
:101B2A00FF30E905FF30EA050030EB059630ED029B
:101B3A00ED1FA02DA12DBF2D6D08803A973E0318E9
:101B4A00A72DA82DA92D642D01300310EB0CEA0C4A
:101B5A00E90CE80CFF3E031DAA2D0130831603137E
:101B6A00A000200883120313ED07031DBD2DBE2D0F
:101B7A00A92DDE2D20306D02031CC42DC52DD92DB3
:101B8A00642D013083160313A0000310831203137C
:101B9A00E80DE90DEA0DEB0D83160313A00BCA2D10
:101BAA00013083120313ED026D08031DDD2DDE2DB6
:101BBA00C62D6C080319E22DE32DEE2DE809E9097B
:101BCA00EA09EB09E80A0319E90A0319EA0A0319F7
:101BDA00EB0A0800831203138C1EF42DF52DFB2D3E
:101BEA001A0883160313AB002B08B80083128C1D46
:101BFA00FF2D002E402E0A128A11EC270A128A158E
:101C0A0083160313AB002B08B7003703031D0E2EF0
:101C1A000F2E162E36080A128A15E5240A128A157C
:101C2A003D2E02303706031D1B2E1C2E232E35088F
:101C3A000A128A15E5240A128A153D2E0330370640
:101C4A00031D282E292E302E34080A128A15E5245F
:101C5A000A128A153D2E04303706031D352E362EFC
:101C6A003D2E33080A128A15E5240A128A153D2EDA
:101C7A00831203138C110C1F432E442E892E1F0C22
:101C8A0083160313AB002B0C0F39003A031D4E2E9B
:101C9A004F2E892EA501FF30AB002B08A60000307D
:101CAA00A700A800F430A9000130AA008312031388
:101CBA001E080A128A1594260A128A158316031315
:101CCA002608B2002508B1003208AC003108AB0082
:101CDA000310AC0CAB0C0310AC0CAB0C2B0883122E
:101CEA00031395008316031331080339AB00AB0EB7
:101CFA00831203131708831603132B06CF392B06F7
:101D0A008312031397000C13831603132F08FF0083
:101D1A002E088A002D0E8300FE0E7E0E0900831205
:101D2A000313EE00831603132708F0002808F100B6
:101D3A00F201F30100300A128A1546270A128A159F
:101D4A00730883120313DB007208DA007108D900E2
:101D5A007008D8008316031327082902F000280800
:101D6A00031C280A2A02F100F201F30100300A12C8
:101D7A008A1546270A128A15730883120313A700C5
:101D8A007208A6007108A5007008A4008316031340
:101D9A0025082602F000F101031CF103F201F11BF0
:101DAA00F2037208F30001300A128A1546270A1252
:101DBA008A15730883120313A3007208A20071081C
:101DCA00A1007008A0000A128A110F260A128A15A9
:101DDA00831203132308C1002208C0002108BF0090
:101DEA002008BE00831603132508831203136E020C
:101DFA00F000F101031CF103F201F11BF203720876
:101E0A00F30001300A128A1546270A128A15730846
:101E1A0083120313BD007208BC007108BB0070086E
:101E2A00BA000A128A1126200A128A15831203138B
:101E3A003D08D7003C08D6003B08D5003A08D40034
:101E4A000A128A1187230A128A1583120313570862
:101E5A00EB005608EA005508E9005408E8000A129F
:101E6A008A1553250A128A158312031369088316E1
:101E7A000313A60083120313680883160313A5002D
:101E8A000800F800780803194B2F4C2F602FF31F16
:101E9A004F2F502F602F7009FA007109FB00720949
:101EAA00FC007309FD00FA0A0319FB0A0319FC0A6C
:101EBA000319FD0A682F7308FD007208FC007108F7
:101ECA00FB007008FA007308720471047004031DA1
:101EDA006F2F702F792F0030F3000030F20000309E
:101EEA00F1000030F000FF2F9630F4007408F9007A
:101EFA008B2F0130F4007408F90701300310FD0C30
:101F0A00FC0CFB0CFA0CFF3E031D832FFE307D05F3
:101F1A00031D902F912F7E2FAD2F0130F4007408EE
:101F2A00F9070130FA07003003180130FB070030C7
:101F3A0003180130FC07003003180130FD07013097
:101F4A000310FD0CFC0CFB0CFA0CFF3E031DA52F25
:101F5A00FF307D05031DB22FB32F922FBF2F013003
:101F6A00F9020130F4000310FA0DFB0DFC0DFD0D12
:101F7A00F40BB82FFC1BC22FC32FC92F02307902D2
:101F8A000318C82FC92FB42F7918CC2FCD2FD52FCE
:101F9A00FF30FA05FF30FB057F30FC05FF30FD05F9
:101FAA000310F90C7908F400F501F601F70118306D
:101FBA000310F40DF50DF60DF70DFF3E031DDD2F91
:101FCA007408FA047508FB047608FC047708FD0413
:101FDA0078080319F12FF22FF72FF31FF52FF62F99
:101FEA00F72FFD177D08F3007C08F2007B08F1004B
:061FFA007A08F000080067
:08400000FF3FFF3FFF3FFF3FC0
:04400E00FF3FFF3F32
:00000001FF
