:060000000A128A110C280F
:10000800FE00030EF1000A08F2000A128A113828CD
:100018000A128A110F280A128A114F200A128A110D
:10002800F70083010A128A111928831203130C1E80
:100038001E281F2821287708990077080A128A1194
:1000480049200A128A110230F6000430F500BA304D
:10005800F400F40B2D28F50B2D28F60B2D280000A5
:1000680019280A128A110C28831203138C1E3D28A2
:100078003E2842281A08F0007008F70072088A0023
:10008800710E8300FE0E7E0E0900F30073088312C2
:0800980003139300080001347A
:08400000FF3FFF3FFF3FFF3FC0
:04400E00FF3FFF3F32
:00000001FF
