:060000000A128A110C280F
:10000800FE00030EF1000A08F2000A128A119D2868
:100018000A128A110F28F701F801F901FA01830180
:100028000A128A111728780C83120313031C8613EB
:10003800031886170A128A11CE200A128A11D030A4
:10004800F3000030F4000A128A11BB200A128A1148
:100058000E30F3000030F4000A128A11BB200A1295
:100068008A110A128A11D7200A128A11D130F30094
:100078000030F4000A128A11BB200A128A110030DB
:10008800F300F4000A128A116D200A128A1173080B
:1000980083120313A2002208F7000A128A11C5204E
:1000A8000A128A11033083120313A4000830A30034
:1000B8007630A200A20B5E28A30B5E28A40B5E2854
:1000C8000000770883120313880017280A128A1180
:1000D8000C280A128A11AE200A128A1183160313F9
:1000E80091150A128A11AE200A128A11831203137B
:1000F8001308F500F6017508A0007608A1000A1299
:100108008A11AE200A128A1173037404031D8D2804
:100118008E289228831603139112952883160313A9
:1001280091161116831203132108F4002008F30016
:100138000800831203138C1EA228A328A7281A08D4
:10014800F0007008F80072088A00710E8300FE0E35
:100158007E0E0900831603131419B328B428AE2899
:1001680011081F39031DB928BA28AE2808000A1239
:100178008A11AE200A128A1173088312031393009E
:1001880008000A128A11AE200A128A118316031374
:10019800111508000A128A11AE200A128A11831654
:1001A8000313111408000A128A11AE200A128A11C8
:0801B8008316031391140800E3
:08400000FF3FFF3FFF3FFF3FC0
:04400E00FF3FFF3F32
:00000001FF
