:060000000A128A110C280F
:10000800FE00030EF0000A08F1000A128A11C72840
:100018000A128A110F28F801F901FA018312031351
:10002800A30183010A128A1119280A128A11B5201C
:100038000A128A11D030F2000030F3000A128A1135
:10004800A2200A128A110030F200F3000A128A1163
:10005800A2200A128A110A128A11BE200A128A11D3
:10006800D130F2000030F3000A128A11A2200A12DD
:100078008A110030F200F3000A128A1167200A126E
:100088008A11720883120313A0002008F8000A12CC
:100098008A11AC200A128A11033083120313A200BA
:1000A8000830A1007630A000A00B5828A10B5828D2
:1000B800A20B582800007808831203138800192817
:1000C8000A128A110C280A128A1195200A128A111A
:1000D8008316031391150A128A1195200A128A11A0
:1000E800831203131308F400F5017408F600750869
:1000F800F7000A128A1195200A128A1172037304F2
:10010800031D872888288C288316031391128F28AB
:1001180083160313911611167708F3007608F20078
:1001280008008316031314199A289B289528110888
:100138001F39031DA028A128952808000A128A1132
:1001480095200A128A11720883120313930008007B
:100158000A128A1195200A128A118316031311159F
:1001680008000A128A1195200A128A1183160313AD
:10017800111408000A128A1195200A128A1183168E
:1001880003139114080071088A00700E8300FE0E94
:040198007E0E0900CE
:08400000FF3FFF3FFF3FFF3FC0
:04400E00FF3FFF3F32
:00000001FF
